:100000000C9442020C945F020C945F020C945F0209
:100010000C945F020C945F020C945F020C945F02DC
:100020000C945F020C945F020C94E5310C94B8328E
:100030000C944D2C0C945F020C945F020C945F02A4
:100040000C945F020C945F020C945F020C945F02AC
:100050000C945F020C94052D0C945F020C945F02CB
:100060000C945F020C945F020C945F020C945F028C
:100070000C945F020C945F020C945F020C945F027C
:100080000C945F020C945F020C945F020C945F026C
:100090000C945F020C945F020C945F020C945F025C
:1000A0000C945F020C945F020C945F02AA00A900FA
:1000B00001000100010001000100010059005A0087
:1000C0005B005C005D005E005F0060006100590045
:1000D0005A005B005C005D005E005F006000610034
:1000E00059005A005B005C005D005E005F0060002C
:1000F000610059005A005B005C005D005E005F001B
:100100006000610000010101010101010101020221
:1001100002020202020202030303030303030304B5
:100120000404040404040505050505060606060680
:10013000070707070708080808090909090A0A0A3A
:100140000B0B0B0C0C0C0D0D0D0E0E0E0F0F0F10DC
:100150001011111112121313141415151616171766
:10016000181819191A1A1B1B1C1D1D1E1E1F2020D2
:10017000212222232424252626272829292A2B2C1C
:100180002D2D2E2F30313232333435363738393A3F
:100190003B3C3D3E3F404142434445464748494A37
:1001A0004C4D4E4F50515354555658595A5B5D5E05
:1001B0005F616264656668696B6C6D6F70727375A0
:1001C00077787A7B7D7E8082838587888A8C8E8F04
:1001D00091939596989A9C9EA0A2A3A5A7A9ABAD32
:1001E000AFB1B3B5B7BABCBEC0C2C4C6C9CBCDCF20
:1001F000D1D4D6D8DBDDDFE2E4E7E9EBEEF0F3F5CE
:10020000F8FAFDFF00000000000000002A2B280083
:1002100000000000000000000000000000000029B5
:10022000000000002C1E3420212224342627252EF5
:10023000362D3738271E1F2021222324252633332D
:10024000362E37381F0405060708090A0B0C0D0E59
:100250000F101112131415161718191A1B1C1D2F25
:100260003130232D350405060708090A0B0C0D0E45
:100270000F101112131415161718191A1B1C1D2F05
:100280003130354C0000000000000000000000008C
:10029000000000000000000000000000000000005E
:1002A00000000000000000007E0F00D4FFFFFFC729
:1002B00000000078160364006A006D0061006300AE
:1002C00072006F007000610064000000280370007D
:1002D0006F0073006900740072006F006E005F00B1
:1002E00065006C0065006300740072006F006E00B2
:1002F0006900630000000403090409025B000301B4
:1003000000A0FA0904000001030101000921110104
:1003100000012244000705810308000109040100CF
:10032000020300000009211101000122220007053B
:1003300082032000010705030320000109040200D5
:10034000010300000009211101000122B600070588
:1003500084032000011201000200000008756F11E3
:10036000560001010200010660FF0961A101096256
:10037000150026FF009520750881020963150026E7
:10038000FF00952075089102C005010902A10185B1
:10039000020901A100050919012908150025019587
:1003A00008750181020501093009311581257F9504
:1003B000027508810609381581257F950175088128
:1003C00006050C0A38021581257F950175088106FE
:1003D000C0C005010980A101850319012AB70015D4
:1003E0000126B700950175108100C0050C0901A117
:1003F00001850419012AA002150126A002950175A4
:10040000108100C005010906A1018506050719E054
:1004100029E71500250195087501810205071900D6
:1004200029EF1500250195F07501810205081901D4
:100430002905950575019102950175039101C00586
:10044000010906A101050719E029E7150025019515
:1004500008750181029501750881010507190029B8
:10046000FF150026FF009506750881000508190193
:100470002905150025019505750191029501750362
:100480009101C00011241FBECFEFDAE0DEBFCDBF67
:1004900011E0A0E0B1E0E0E2FDE602C005900D92BF
:1004A000AC3EB107D9F723E0ACEEB1E001C01D923C
:1004B000AF36B207E1F70E94B0110C94FD350C94F1
:1004C000000055985D98209828980E94AF100895D4
:1004D000843090F4611110C0493070F4E42FF0E0E2
:1004E00099E0899FE00DF11D1124EE0FFF1FE454E8
:1004F000FF4F85919491089581E090E008958430B4
:1005000088F461110FC0E82FF0E0EE0FFF1F81E0CB
:100510004827E40FF11DEE0FFF1FE455FF4F8591B3
:100520009491089581E090E0089581E008950E94FB
:100530009502089581E008950E94950208950E9411
:100540009C02089508950E94A2020895A6E0B0E0DA
:10055000ECEAF2E00C94E83449835A839E833091AC
:10056000F30189819A8131111AC03E81332399F0B8
:10057000222389F00E944D08182F682F89819A81C3
:100580000E94230869817A81812F0E94670F269635
:10059000E3E00C9404350E943808182FF3CF0E9432
:1005A0004D0869817A81F1CFFC01262F408151816C
:1005B00062817381848195810E94A6020895CF9300
:1005C000DF93D82FC92F61E00E94D4026D2F7C2FBA
:1005D0000E949702DF91CF910895CF93DF93D82F98
:1005E000C92F60E00E94D4026D2F7C2F0E94A302CD
:1005F000DF91CF91089581E008950E94FB02089554
:10060000CF93C82F0E9417078C2F0E94FD022FEF57
:1006100084E39CE0215080409040E1F700C000005E
:10062000CF91089581E00E9400030E94292D089532
:1006300080E00E9400030E943A2D08950F931F93BB
:10064000CF93DF938C0161E00E94D402EC01B801EA
:100650000E948628882309F449C0B801CE010E946F
:100660009F02882309F442C0B801CE010E9492275C
:100670008823E1F1B801CE010E94E4228823B1F180
:10068000B801CE010E94B922882381F1B801CE01C0
:100690000E94551F882351F1B801CE010E94D32733
:1006A000882321F1F8018581882381F0CA35FCE790
:1006B000DF0739F178F4C130ECE7DE07F9F0C33039
:1006C000FCE7DF07C9F0C115DC4771F0C8010E94E3
:1006D0009A020DC0CB35ECE7DE07B1F0CC35DC4734
:1006E000A9F70E949F0CF2CF0E94120380E0DF91D5
:1006F000CF911F910F9108950E94B10C0E94180391
:10070000F5CF0E94A90CE2CF0E94AD0CDFCF0E9472
:100710002F2C0E94B81C0E94B60381E00E94C01DCD
:1007200008950E94BA0380E00E94C01D0E94342CEC
:100730000895089581E008950895CF93DF93D82F09
:100740000E949A03C82F882319F08D2F0E949C03C2
:100750008C2FDF91CF9108950895CF93C82F0E94D9
:1007600099038C2F0E949D03CF91089580E00E94F1
:10077000AD0308950E946B2A0E94AD030895CF93A4
:100780000E946B2AC82F8091EE018C1779F0C093DC
:10079000EE010E94B92C6093EF017093F0018093F9
:1007A000F1019093F2018C2F0E94AD03CF91089537
:1007B000ADE0B0E0EEEDF3E00C94E9344887598702
:1007C0006A877B878C879D8791110E94AA0B1F8265
:1007D00086E0FE013896DE01119601900D928A9511
:1007E000E1F78D8181110DC029813A814B815C81B6
:1007F0006D817E818F810E94F00A2D96E2E00C943B
:100800000535CE0101960E94DF028111EDCFF5CFB3
:10081000FC018481813021F4808191810E947608DD
:100820000895662329F00E9452240E9428250895E5
:100830000E94B024FACFCF93C82F882399F08CEF71
:100840008C0F813A88F48C2F0E940E2B882329F07C
:100850008C2F0E94B32B0E94420C8C2F0E949C2B49
:100860000E94420CCF91089580E28C0F883048F4AA
:10087000C77081E001C0880FCA95EAF70E948B0B10
:10088000EFCF8BE58C0F833038F42C2F2452330BB1
:10089000C9010E94A12AE6CFE8E5EC0FEB3150F444
:1008A000F0E0EE0FFF1FE95BFE4F808191810E9417
:1008B000C72AD8CF83E38C0F8331A0F661E08C2F59
:1008C0000E941104CFCF882381F19CEF980F913AB9
:1008D00028F40E94B32B0E94420C089590E2980FD6
:1008E000983050F4877091E001C0990F8A95EAF72B
:1008F000892F0E94910BEFCF9BE5980F933028F43E
:1009000080E090E00E94A12A089598E5980F9B311D
:1009100028F480E090E00E94C72A089593E3980F9E
:10092000933118F460E00E94110408951F93CF934F
:10093000DF93182FEB010E941B04209739F4812FBD
:100940000E946304DF91CF911F9108958FE99FE08A
:100950000197F1F700C000002197EFCF6AE070E047
:10096000893311F460E570E00E94960408958823AD
:1009700021F00E948B0B0E94420C0895882321F0E5
:100980000E94910B0E94420C0895A0E0B0E0EBECB5
:10099000F4E00C94E3346C01D62FC72FFC011581D1
:1009A000068102950F700E94800BE82E8823F9F0D3
:1009B000E12E1123E1F08C2F807F803461F080E202
:1009C0008D0F8830F0F08C2F807E803221F4D23071
:1009D000C0F00023B1F080910F0382FF12C082E0CB
:1009E0000E94720C0E94800B91E0E82EE926EC2F09
:1009F000E295EF70C03CB0F5F0E0E150FA4C0C9499
:100A0000CC34E12CF4CF0C2F0F70C03110F00295D4
:100A1000007F112399F0002359F080E28D0F883078
:100A200010F0D11107C0802F0E948B0B0E94420C46
:100A30008D2F51C0802F0E949C0BF8CF8D2F0E94CC
:100A40006304002379F080E28D0F883010F0D1111B
:100A500004C0802F0E94910B03C0802F0E94A20B24
:100A60000E94420CEE2089F00E947C0B80FD0DC09C
:100A7000F60115820E94760B0E949107C6010E9422
:100A8000DE060E94760B0E949D07CDB7DEB7E8E038
:100A90000C94FF34FC2FFF70FF2EC07FC03219F082
:100AA000F29480EFF822DD2341F0D130D1F111230F
:100AB00009F444C00023F1F0BBCF80910F0382FD05
:100AC00015C0112359F0FF2029F08F2D0E948B0BA8
:100AD0000E94420C80E00E941B04C4CF80E00E9470
:100AE0006304FF2009F4BECF8F2DB4CF112369F02A
:100AF000011104C08F2D0E94B704B4CF013009F05A
:100B0000B1CF8F2D0E94C20BADCF0111ABCF8F2D76
:100B10000E94BE048F2D0E94CE0B8F2D0E94B10B20
:100B2000A1CF112321F0063008F09CCFE3CF053090
:100B300008F098CF8F2D0E94BE0494CF0023D1F3EC
:100B4000D93369F42FEF87EE93E021508040904035
:100B5000E1F700C000008D2F0E94630483CFEFE314
:100B6000FCE93197F1F7F5CF8C2F86958695837048
:100B7000882369F0813009F075CF8D2F9C2F9370F9
:100B8000111102C080E090E00E94C72A6BCF8D2F28
:100B90009C2F9370111102C080E090E00E94A12A66
:100BA00061CF612F8D2F0E9411045CCF8C2F837039
:100BB000811134C0111124C04D2F429546954770C4
:100BC000440F440F8D2F8F70042E01C0880F0A949C
:100BD000EAF7D071DD2341F02FE030E001C0220FB1
:100BE0004A95EAF7D22FD095C695C695C3708D2B3E
:100BF000C23071F0C33079F0C13039F00E946D0716
:100C00000E946B2A0E94AD032DCF0E946707F8CF88
:100C10000E947307F5CF0E946407F2CF112339F1C8
:100C2000C0FFEECF4D2F429546954770440F440FBD
:100C30008D2F8F70042E01C0880F0A94EAF7D071AF
:100C4000DD2341F02FE030E001C0220F4A95EAF7A2
:100C5000D22FD095C695C695C3708D2BC23069F042
:100C6000C33071F0C13031F00E94BF07C9CF82306C
:100C700038F2D8CF0E94B907C3CF0E94C507C0CFB2
:100C80000E947F07BDCFCF70112339F08C2F0E94B7
:100C900091078D2F0E94B704B3CF8D2F0E94BE0401
:100CA0008C2F0E949D07ACCFD23F31F170F4D03F22
:100CB000B9F0D13FB1F1112309F451C0002309F477
:100CC0004BC08D2F0E941B049BCFD33FE1F0D43F3C
:100CD00021F11111F3CF011154C08C2F8F71E1CF8D
:100CE000112341F0053008F08BCF8C2F8F710E94BB
:100CF000AD0786CF0530F7CF8C2F8F711111D1CF73
:100D00000E9491077DCF112329F08C2F8F710E94B3
:100D1000880776CF0E94840773CF80910F0382FDEE
:100D200006C08C2F8F71112309F4BBCFE9CF11239B
:100D300049F0CF718C2F0E94910763E08C2F0E94A5
:100D4000540C5ECF81E00E94720C023008F458CF40
:100D500082E00E94720C54CF8C2F8F71D1CF002370
:100D600009F4BBCFD93369F4FFEF27EE83E0F150EC
:100D700020408040E1F700C000008D2F0E946304F6
:100D80003FCFEFE3FCE93197F1F7F5CF0F931F93D6
:100D9000CF93DF93EC01688179818D810E94830874
:100DA0008C010E94CB070E946307B801CE010E940C
:100DB000C504DF91CF911F910F910895CF93DF93D9
:100DC000EC018C81882399F0CE010E941E038111D1
:100DD00011C00E94800B882351F08D81882339F047
:100DE00080910F0382FF03C082E00E94720CDF91AA
:100DF000CF910895CE010E94C606CE010E94ED0259
:100E0000F6CF80E090E00E94A12A80E090E00E946E
:100E1000C72A0E94AA0B0E94420C0E9445250E94EC
:100E2000282508950E94CA2B0E94010708950E9458
:100E3000990B0E9412070895282F92959F70963063
:100E400091F060F4925F9F70923030F481E0203F27
:100E500079F030F4283E30F080E008959A5FF3CFC7
:100E6000243FD1F7089581E0283EE0F3213FF9CFF8
:100E70000895FC018481882339F0808191810E944A
:100E800076080E941C07089580E00895A6E0B0E06F
:100E9000ECE4F7E00C94E9342696E2E00C94053596
:100EA000A7E0B0E0E6E5F7E00C94E9342796E2E04D
:100EB0000C94053508950E945A0708950E945B0717
:100EC0008093FE01089508950E945E070895909111
:100ED000FE01892B0E945E0708959091FE018923EF
:100EE0000E945E0708959091FE0189270E945E0787
:100EF00008950E945A0708950E94790708950E9454
:100F00007C078093FD01089580E00E947F0708958B
:100F100091E001C0990F8A95EAF7892F0E947F0717
:100F2000089521E030E001C0220F8A95EAF7809110
:100F3000FD01822B0E947F07089521E030E0A90186
:100F400002C0440F551F8A95E2F7CA01809590911F
:100F5000FD0189230E947F07089521E030E001C050
:100F6000220F8A95EAF78091FD0182270E947F0770
:100F700008959091FD01892B0E947F07089590911B
:100F8000FD0189230E947F0708959091FD01892723
:100F90000E947F07089508959B01677091E001C04A
:100FA000990F6A95EAF763E0369527956A95E1F718
:100FB000B901660F771F260F371FFA01E20FF31FE3
:100FC00040E050E0682F70E08191DF0111979B01B4
:100FD000042E02C0369527950A94E2F721702195D8
:100FE0002827292328272C934F5F5F4F4330510533
:100FF00059F708959C01A82FA77083E0369527958F
:101000008A95E1F7C901880F991F820F931FFB0191
:10101000E80FF91F40E050E080E0219130E00A2E17
:1010200002C0369527950A94E2F721703327042EE3
:1010300001C0220F0A94EAF7822B4F5F5F4F4330C3
:10104000510559F70895282F862F911107C0622F57
:1010500070E047EF51E0293040F008959C5F9230F6
:10106000E0F7622F70E044EF51E00E94CC07F5CF2B
:10107000282F892F911105C067EF71E0293030F0DA
:1010800008958C5F823038F464EF71E0822F90E035
:101090000E94FA07089580E0F3CFA0E0B0E0E3E516
:1010A000F8E00C94E4347C010091FD018091FE0194
:1010B000082BC3E0D0E010E0C8010C2E02C09595CB
:1010C00087950A94E2F780FD09C02197A8F7D12CF3
:1010D0008D2DCDB7DEB7E7E00C940035DC2EB701DF
:1010E0008C2F0E94800F019781F3F2CFCF93DF9373
:1010F000D82FC92F0E944D086D2F7C2F0E94800F82
:10110000DF91CF9108951F93CF93DF93162FD72FA1
:101110009091F301992341F0862F972F0E94760832
:10112000DF91CF911F910895882381F0862F972F0B
:101130000E944D08C82F682F812F9D2F0E942308E1
:10114000612F7D2F8C2F0E94800FEACF862F972F43
:101150000E943808C82FF4CFE1E0F0E0DF0102C0C0
:10116000AA0FBB1F6A95E2F7BD01DF0102C0AA0FFB
:10117000BB1F4A95E2F76A2B01C0EE0F2A95EAF7EA
:10118000962F9823961302C08E2B0895E0958E23F8
:101190000895242F462F682F8091FD010E94AC08EE
:1011A0000E947F0708950F931F93CF93E091FF0153
:1011B000C7E0809100028E1304C0CF911F910F9160
:1011C00008950E2F10E0CE9FF0011124EF5FFD4F28
:1011D00020813181428153816481758186810E94A1
:1011E0005007F8013196E770E4CF20913902309131
:1011F0003A0240913B0250913C0260913D02709155
:101200003E0280913F020E945007089580913F0264
:10121000803178F480913E02882359F0E091FF01FB
:101220002091000230913A024091390257E02E138A
:1012300001C008956E2F70E05E9FF0011124DF0160
:10124000AF5FBD4F14968C911497882361F111966E
:101250008C911197831327C08C91841324C0159609
:101260008C91159781111FC012968D919C91A09120
:101270003B02B0913C028A1B9B0B883C910598F481
:1012800080913F028F70806180933F02E95FFD4F44
:1012900080818F708061808389E392E00E94DE0606
:1012A0000E94D3080895FB013196E770C0CFE0910A
:1012B000FF019091000227E0E91302C080E0089549
:1012C000AE2FB0E02E9FF0011124EF5FFD4F318172
:1012D000361306C03081381303C03581341304C07F
:1012E000FD013196E770E8CF81E008958F929F92DB
:1012F000AF92BF92DF92EF92FF920F931F93CF9323
:10130000DF93CDB7DEB72D970FB6F894DEBF0FBED3
:10131000CDBF8C0186E0F801DE01189601900D9298
:101320008A95E1F7F801E080F580A280B38084819E
:1013300099E3892E92E0992E90913D0291111BC064
:10134000882309F4FCC0FF2009F43DC1C8010E94B4
:101350003907882309F437C187E0F801D4010190E7
:101360000D928A95E1F7C4010E9408040E940609C3
:101370000E94F508E4C0D0903E0220913B023091DB
:101380003C02A501421B530BDD2009F4DBC0483CA5
:10139000510508F0A6C0882309F4D1C090913A0203
:1013A000918080913F02803108F06BC0991228C073
:1013B000909139029E1124C0F1105DC08F70806140
:1013C00080933F020E94F50889E392E00E94DE06C6
:1013D00080913F02F8018683F12C8F2D2D960FB658
:1013E000F894DEBF0FBECDBFDF91CF911F910F915B
:1013F000FF90EF90DF90BF90AF909F908F900895F7
:10140000F11039C040E0692D8E2D0E94570940E04F
:10141000692D8E2D0E945709F82E8111DDCF888508
:1014200099850E947608292F22952F70903450F4C8
:101430009F70223080F0992399F0F80196819031C5
:1014400078F4CBCF2A5F2F70223078F0C8010E9449
:10145000DE06FD2CC2CF992319F0882309F4BDCFF5
:10146000805E883008F4B9CFF1CF803F08F4B5CF63
:10147000815F8230F7CF80913F02816080933F028D
:10148000ABCF991207C0909139029E1103C0FF2083
:1014900009F479C0C8010E943907882309F493C070
:1014A000FF2009F490C080913F02803288F02091A3
:1014B000390230913A023A832983BC82AB829091FF
:1014C0003D029D831E828F83CE0101960E94DE061F
:1014D00087E0F801A9E3B2E001900D928A95E1F767
:1014E00045CF90913F029031A0F4488559856A8597
:1014F0007B858C859D850E94460789E392E00E944A
:10150000DE0687E0F40111928A95E9F70E94F5085A
:1015100063CF8823A1F020913A0281812813BACFAA
:10152000809139028E11B6CFF110B4CF9683C801E5
:101530000E94DE0687E0F40111928A95E9F7FF2404
:10154000F3944BCF483C510508F041C08823B9F3D0
:10155000FF20C9F190913A02818198132AC08091AD
:1015600039028E1126C080913F0280FD19C0803162
:10157000B8F08683807F803F39F08681982F907FF6
:10158000905F8F70892B8683C8010E94DE0687E0FA
:10159000F801A9E3B2E001900D928A95E1F7E8CE57
:1015A00087E0F801A9E3B2E001900D928A95E1F796
:1015B000C6CFC8010E94390781118ACF80913F02AE
:1015C000816080933F02C8010E94DE06B8CF488543
:1015D00059856A857B858C859D850E94460791CFBC
:1015E000AEE0B0E0E6EFFAE00C94E8342887398703
:1015F0004A875B876C877D878E87CE0108960E941D
:1016000076098823B1F06C85662341F028853985F9
:101610004A855B857D858E850E94500717E0809105
:10162000FF019091000289133EC02E96E3E00C94D6
:10163000043587E0FE013896DE01119601900D9287
:101640008A95E1F7209100024091FF018C85882363
:1016500029F330E0C90101968770992750E084177B
:10166000950799F097E0929FD001939FB00D1124B8
:10167000AF5FBD4FFE01319601900D929A95E1F753
:10168000809300020E94D308C9CF0E9417071092CE
:1016900000021092FF0187E0E9E3F2E0DF011D9212
:1016A0008A95E9F7BBCF189FC00111248F5F9D4F2A
:1016B0000E947609882309F4B8CFE091FF011E9FAC
:1016C000F0011124EF5FFD4F208131814281538170
:1016D0006481758186810E9450078091FF0190E0AE
:1016E0000196877099278093FF0199CF80916802B6
:1016F00086958695869508958091680287700895ED
:1017000090916802977081E0911101C080E0089586
:1017100080919402089590919402982B9093940252
:101720000895982F90958091940289238093940234
:10173000089510929402089590919302982B90939B
:1017400093020895982F9095809193028923809316
:101750009302089510929302089508950E94AD0B8C
:10176000089590916902292F2823222331F0809532
:101770008923809369020E94AE0B089508950E9408
:10178000BE0B089590916A02292F2823281729F06B
:10179000982B90936A020E94BF0B089590916A0261
:1017A000292F2823222331F08095892380936A02F0
:1017B0000E94BF0B089580916A02882329F010923D
:1017C0006A0280E00E94BF0B0895CF93DF93C0911F
:1017D000940280919302C82BD0916A02DD2331F0EC
:1017E0000E94ED2A81110E94DB0BCD2B8C2FDF9103
:1017F000CF910895CF93DF93C0912401D09125011B
:101800000E94E50B8883C0912401D091250148E016
:1018100050E060E672E0CE010E946C35892B59F0F1
:1018200088E0FE01A0E6B2E001900D928A95E1F712
:10183000CE010E94782ADF91CF910895CF93DF9354
:10184000C0912201D09123010E94E50B8983C091B0
:101850002201D091230140E250E060E472E0CE0129
:101860000E946C35892B59F080E2FE01A0E4B2E0C1
:1018700001900D928A95E1F7CE010E94832ADF91B3
:10188000CF91089580914301882339F080910E0310
:1018900087FF03C00E941E0C08950E94FA0B089552
:1018A00008950E94500C089590910F0392FF11C06B
:1018B00098E0899F90011124622B609368020E9436
:1018C0009107809168028695869586950E94510CB5
:1018D00008950E94910708951092680280E00E9486
:1018E000510C089590916802809589238093680235
:1018F000282F277021110DC0891759F090910F03DF
:1019000092FF07C08695869586950E949D070E9446
:101910006C0C089590910F0392FB222720F9281751
:1019200069F080FB92F990930F0380910E039091E0
:101930000F030E94D30C82E00E94720C08958091E4
:101940000F0382FB882780F991E089270E948A0C87
:10195000089581E00E948A0C089580E00E948A0C1C
:1019600008956FEF7FEF80E090E00E94D5350895F5
:1019700080E090E00E94A135863E9E4F19F40E94BF
:101980000E28089580E0089582E090E00E94993545
:10199000089583E090E00E949935089584E090E0F6
:1019A0000E94A1350895BC0184E090E00E94D535E5
:1019B0000895AB01BC018FE090E00E94C935089505
:1019C000AB01BC0183E190E00E94C935089560E05D
:1019D00070E0CB010E94E00C089560E070E0CB0164
:1019E0000E94D90C0E94E70C0895A8E0B0E0EBEF4C
:1019F000FCE00C94E93466EE7EEF80E090E00E941B
:101A0000D53560E082E090E00E94B73581E08093B8
:101A1000FE0161E083E090E00E94B73560E074E190
:101A200084E090E00E94D53560E086E090E00E947E
:101A3000B7356FEF87E090E00E94B73540E050E0A7
:101A4000BA0188E090E00E94C93560E084E290E04D
:101A50000E94B73560E087E190E00E94B73560E012
:101A60008CE090E00E94B73560E08DE090E00E944D
:101A7000B73519821A821B821C821D821E821F8228
:101A8000188648E050E068E170E0CE0101960E94BF
:101A9000A73540E050E0BA0180E290E00E94C935ED
:101AA00080E00E9427280E9466280E94ED0C28965C
:101AB000E2E00C9405350E94F50C0895682F8EE045
:101AC00090E00E94B7350895A6E0B0E0EAE6FDE0B8
:101AD0000C94E7340E94AD2C8C018091950290917A
:101AE00096028017910779F019821A820E94AD2C14
:101AF000BC0149815A8180E090E00E94D803109394
:101B00009602009395022696E4E00C9403350E9419
:101B1000B92C6093A1027093A2028093A3029093C8
:101B2000A40260939D0270939E0280939F02909303
:101B3000A00208950E94B92C6093A1027093A202A2
:101B40008093A3029093A4026093990270939A02E7
:101B500080939B0290939C020895089508950E949B
:101B6000AD0D089508950E94B20D089588E790E1A3
:101B70000E94BD110E94AE0D0E94AF0D089581E03C
:101B800008950E94BF0D08950E94BF0D0895089505
:101B900008950E94C70D0E94C80D08950E949410D8
:101BA0000E94AC030E948B1D08950E94A42C0E94E9
:101BB00076280E94B51F0E9420110E94CE0D0E941F
:101BC000B30D0895A6E0B0E0E8EEFDE00C94E0343B
:101BD0000E94C10D811111C00E94640D0E94B81CA9
:101BE0000E94D41F81110E949A0D0E9466250E94B6
:101BF000BF032696EBE00C94FC340E943011009158
:101C000097021091980280E00E94B41008171907FB
:101C100019F38091A50281FD0E94BD100E94C40DA0
:101C2000E82E80E00E94B4108C01A0909702B09042
:101C300098028A159B0579F1A826B926F12CCC24A7
:101C4000C394D12CC6018A219B21892BD1F09924E0
:101C50009394C60180239123892B09F4912CEE20C3
:101C600059F0F9821A820E94AD2CBC0149815A8137
:101C700081E0992D0E94D803492D6F2D80E00E94AC
:101C80006616F394CC0CDD1C89E0F812DBCF1093C0
:101C90009802009397020E94870DA0CF1F93CF93C5
:101CA000DF930E94850FEC01811522E5920708F071
:101CB00053C0811540E5940708F0DDC0803E9105D2
:101CC000F8F48D3C910508F0AEC0883A910580F497
:101CD000853A910508F099C08130910521F004976B
:101CE000813A910550F4CE01DF91CF911F91089573
:101CF000885A91094B9708F48BC0C0E0D0E0F3CF2D
:101D0000811550E49507F8F4C11580E2D80708F072
:101D1000CBC0C83ED10538F3CE019A9581159F41BD
:101D200060F78D2F0E942910182FCE0199270E944D
:101D3000850F212F30E0322F2227E901CC27DF71D8
:101D4000C82BD92BD0CF99270E94850FCC27DF70C5
:101D5000C82BD92BD06AC7CF803842E59407C8F585
:101D6000803652E5950708F067C0C03482E5D80791
:101D7000B0F08C2F86958695877020E2829FC001F7
:101D80001124C37021E030E0A90102C0440F551FA7
:101D9000CA95E2F7EA01C82BD92BDC68A4CFC03280
:101DA00052E5D50708F041C08C2F8695869520E234
:101DB000829FC0011124C37021E030E0A90102C05C
:101DC000440F551FCA95E2F7EA01C82BD92BDD68ED
:101DD0008ACF803C52E5950760F48F71C03AD245B6
:101DE00008F03FC090E0982F8827EC01C46FD06ABC
:101DF0007ACF805C9245809708F07FCFDC2FCC278C
:101E0000CC27DF71C06FD06A6ECFA497D0646BCF40
:101E1000C85AD0E0CC0FDD1FC358DE4F0990D881DF
:101E2000C02DD46460CFD0655ECFCF71D0E0DC2F01
:101E3000CC27C16FD06A57CF86958695877020E2F0
:101E4000829FC0011124C37021E030E0A90102C0CB
:101E5000440F551FCA95E2F7EA01C82BD92BDA685F
:101E600042CF0E942910C82FD0E0DC2FCC27CC27EE
:101E7000DF71D06238CF8F710E94291065E0D6954E
:101E8000C7956A95E1F7CF70D0E0DC2FCC27282FDB
:101E900030E084FF05C054E0220F331F5A95E1F76C
:101EA000C22BD32BD0691FCF8D2F8F710E94291089
:101EB000182FCE0199270E94850F212F30E0322F55
:101EC000222722273F71282B392BE901D2CF462F19
:101ED000711106C0693088F460E00E94CD21089538
:101EE0007D3F39F4611109C041E060E00E94D921D1
:101EF00008957C3F11F46623C1F380E090E00895DB
:101F00000E94670F0E944E0E0895803E9105D1F108
:101F1000C8F48133910509F47FC048F489329105F2
:101F200009F46FC08A32910509F47DC008958933A0
:101F30009105E1F082389105C9F08533910509F4E6
:101F40005BC00895843E9105D1F148F4823E91052D
:101F500031F1833E910541F181EE90E00895863E96
:101F60009105C1F1873E9105E1F1089520910E039D
:101F70002370211165C020910F0323FF14C089E253
:101F800090E0089520910E0320FD43C030910F038F
:101F900030FF09C024FF4EC080E090E008952091FA
:101FA0000E0322FDF7CF089520910E0322FD45C0B8
:101FB00030910F0330FD44C024FFF5CFEDCF2091C9
:101FC0000F0321FFF0CF80910E0384FDE5CF87EE54
:101FD00090E0089520910E0323FFE5CF24FDDCCF90
:101FE000F6CF20910E0323FD2EC030910F0331FF59
:101FF000E3CF84EE90E0089520910E0325FFD3CF28
:10200000BECF20910E0325FD21C020910F0323FF99
:10201000CACF89E390E0089520910E0326FFC3CF35
:102020008AE290E0089520910E0326FFBCCF81E361
:1020300090E0089583EE90E0089582EE90E0089598
:1020400080EE90E0089586EE90E0089585E390E0BC
:10205000AACF90910E0392FF10C041E0282F247167
:10206000243009F040E031E0282F2871283009F0B1
:1020700030E0431711F02CE0822793FF10C041E0BD
:10208000282F2471243109F040E031E0282F2871F5
:10209000283109F030E0431711F02CE0822730910D
:1020A0000F0330FF10C051E0282F2171213009F0BB
:1020B00050E041E0282F2871283009F040E0541703
:1020C00011F029E0822731FF10C041E0282F217153
:1020D000213109F040E031E0282F2871283109F042
:1020E00030E0431711F029E0822794FD877E0895A0
:1020F00080E008950E94B10C08950E9430118FE392
:102100009CE90197F1F700C000000E94301180E0C7
:102110000E94B41080FF04C00E947A100E94292DF2
:1021200008950E947D1008950E94B80C811102C08C
:102130000E945B0D0E94C40C8093A5020E94CE0CED
:1021400090930F0380930E030E9491100E94C90C7C
:102150000E9464078091FD010E947C070895089504
:1021600008950E94B0100895E82FF0E0EE0FFF1FD1
:10217000EE5EFC4F8081918108950895CF93DF93A7
:10218000A3EBB1E02CEB31E041E050E08D918F3FCB
:10219000A1F0E82FE295EF70F0E061A18F70EA0105
:1021A00002C0CC0FDD1F8A95E2F7CE019C2F9095DF
:1021B000962391A392A1892B82A32A173B0731F77B
:1021C000DF91CF9108950F931F93CF93DF939C01DD
:1021D000062F10E089E0689FF0011124ED54FE4FB6
:1021E00050E0C1E0D0E060E070E041914F3F29F164
:1021F000842F82958F70805E90E0DC018C9190E05E
:102200004F7002C0959587954A95E2F781708111CC
:1022100014C0CE01682B792B5F5FCC0FDD1F5930C6
:1022200021F7D801AA0FBB1FA20FB31F6D937C9398
:10223000DF91CF911F910F91089580E090E0EACF58
:102240000E94BE10109213031092120310921103F9
:102250001092100381E00E9460110E9461020895B3
:10226000A2E0B0E0E6E3F1E10C94E8341A821982CE
:1022700060E0CE0101960E94E31042E050E0BE0112
:102280006F5F7F4F80E193E00E946C3521E0892BE6
:1022900081F420E041E062E173E080E193E00E949C
:1022A0006111182F0E94B110812F2296E3E00C9447
:1022B000043589819A819093110380931003EACFAA
:1022C0000895A0E0B0E0E7E6F1E10C94E334D82E05
:1022D000E92EF62ED72F042FC22F222379F081E08A
:1022E0008093A8020E94AD2C9093A7028093A6022F
:1022F00080E0CDB7DEB7E8E00C94FF34C090A802D0
:10230000CC20B1F38091A6029091A7020E94D62C16
:10231000059770F310E0000F111FA8016D2D7E2DA1
:102320008F2D9D2F0E946C35892B41F0A8016D2DBA
:102330007E2D8F2D9D2F0E947935CC2D1092A802D5
:102340008C2FD7CF0E94BD2E0E94D50D0E94CA2E81
:1023500008950E94CF2E0E94E20D0E94E92E08955A
:102360000E94462C0E94A32E0E94B60D0E94A2112C
:102370000E94A9110E94C90DFBCF9093ED0180939B
:10238000EC010895A0E0B0E0E8ECF1E10C94E13458
:10239000E82F71110DC0442321F0F0E0EC5FFE4FF7
:1023A0008491682F782FCDB7DEB7EAE00C94FD3426
:1023B000262F30E0C72FD0E0F0E0442321F0EC5F7F
:1023C000FE4FE491F0E086E0829F7001839FF00C65
:1023D00011240FEF10E0C701B8010E946334AB0174
:1023E000220F331F65E5649FC001659F900D112486
:1023F000281B390BC22ECC0CC20EC8018C1B9D0BA6
:102400008E9F90018F9F300D9E9F300D1124832F42
:10241000CC9EB001CD9E700D1124672F77275801F7
:10242000A61AB70AAE9ED001AF9EB00DBE9EB00DEB
:1024300011247B2F5801AC18B1086501CC9E5001C6
:10244000CD9EB00CDC9EB00C1124AB2CBB240A1921
:102450001B090E9FE0010F9FD00D1E9FD00D112470
:102460006E2F43305105C9F09CEFE91693E0F90651
:1024700050F44130510509F496CF4230510589F0AE
:102480007E2F6D2F90CF4430510571F046305105AD
:10249000B9F3632F8B2F7E2F86CF6B2F732F8E2F49
:1024A00082CF732F8D2F7FCF7D2F632FF8CF41E009
:1024B0000E94C21108959C0180E090E0269F812D2A
:1024C000369F800D911D112408959C018230910545
:1024D00008F408959FEF213E8EE1380740F4C901CA
:1024E00045E0969587954A95E1F798E0980F61E069
:1024F000E62FE90FFF27FF1FAF0155954795842F62
:10250000449FF001459FF00DF00D11242E173F0759
:1025100038F49FEF940F961758F78FEF860F0895B2
:102520004F3FE9F361E0640FF6CF40912C015091E9
:102530002D0125E038E0429FC001439F900D529F3E
:10254000900D1124875E994C90932D0180932C015E
:10255000890F0895982FE82F96FDE0958E2F8F70A4
:1025600096FD8F5FE695E695E695E670F0E0E4541B
:10257000FE4F2181289F202D812D112422952F701F
:102580008295807F282B8081820F97FD81958058CE
:1025900008951F93172F922FE42FF0E0EE0FFF1FE7
:1025A000EC5FFE4F418524EE429F412D1124E72F21
:1025B000F0E050E09A01245E3F4F291B310937FFBC
:1025C00003C031952195310993E0220F331F9A956D
:1025D000E1F7E21BF30BF7FF02C0E0E0F0E07E2F33
:1025E000719F712D11241F9108951F93182F822F11
:1025F000E42FF0E0EE0FFF1FEC5FFE4F418524EE6D
:10260000429F412D1124E12FF0E050E09A01245E19
:102610003F4F281B310937FF03C031952195310900
:1026200083E0220F331F8A95E1F7CF01821B930BC2
:102630009C0197FF02C020E030E0219F212D112452
:10264000822F1F9108950F931F93522F10E0F801CE
:10265000EE0FFF1FE25FFE4FA081A052BB0B9D015A
:102660005203F001539FF00D1124000F111FD801E8
:10267000AC5FBE4F19962C912057330B4203D0010B
:10268000439FB00D11249F012A0F3B1F37FF02C04B
:1026900021583F4F220F232F221F330B620F1F9110
:1026A0000F9108950F931F93522F10E0F801EE0F32
:1026B000FF1FE25FFE4FA081A052BB0B9D015203A2
:1026C000F001539FF00D1124000F111FD801AC5FD2
:1026D000BE4F19962C912057330B4203D001439FD4
:1026E000B00D11249F012A0F3B1F37FF02C0215C50
:1026F0003F4F96E0359527959A95E1F7620F1F9128
:102700000F9108950F931F93A42F10E0F801EE0F7F
:10271000FF1FEC5FFE4F9185905797FD9195000F3D
:10272000111FF801E25FFE4F00810052110B2003E0
:10273000A001219F500D112428E330E0291B31090D
:1027400097FD33951A2F1203F001139FF00D1124FA
:102750004E0F5F1F9A01220F331F240F351F37FFC3
:1027600002C021583F4F220F232F221F330B620F2D
:102770001F910F9108950F931F93CF93DF93D62F3F
:10278000072F182FC42F822F0E94AA12982FEC2FE8
:10279000F0E0EE0FFF1FEC5FFE4F81858058980F31
:1027A00097FD9195990F292F3CE0239F212D11240E
:1027B000622F6D0F702F812FDF91CF911F910F919D
:1027C00008954095282F429F412D1124842F08956C
:1027D0009091AB02982B9093AB020895FC019B0162
:1027E000009719F4832F80780895AC0197FF04C0F7
:1027F00044275527481B590BB901640F751F37FD36
:102800000FC0C901841B950BA5E0880F991FAA95DD
:10281000E1F70E94773480E2861BF7FD81950895E9
:10282000CB0165E0880F991F6A95E1F7BA01621B39
:10283000730B0E94773480E6EFCF0F931F93CF93F3
:10284000DF93D62F172FC82FBA01C901212F201BC4
:10285000022F0E94EE13982F990F990F782F791B52
:10286000700F719F712D11246D2F8C2FDF91CF91DF
:102870001F910F910895FF920F931F93CF93DF93B2
:10288000D62FC72F182FBA01C901F12EF01A0E94B6
:10289000EE13982F990F990F082F091B0F0D019F09
:1028A000012D11246D2F7C2F802FCDB7DEB7E5E0F1
:1028B0000C940235EF920F931F93CF93DF93D62F93
:1028C000172FC82FBA01C9010E19010F0E94EE136C
:1028D000702F781B719F712D11246D2F8C2FDF911C
:1028E000CF911F910F91EF900895EF920F931F9347
:1028F000CF93DF93D62FC72F182FBA01C9010E1916
:10290000010F0E94EE13081B019F012D11246D2F52
:102910007C2F802FDF91CF911F910F91EF90089521
:1029200048E050E068E170E084E193E00E94A73560
:102930001092AB0208950E9457120895A0E0B0E0F3
:10294000E4EAF4E10C94DD34882E762E062F10E0B4
:10295000F80129E0829FE00DF11D1124EC5FFE4F8C
:10296000C081CF3F79F124E0A22E21E0B22E3AEDD2
:10297000E32E32E0F32E912CD0E0CE01880F991F88
:10298000BC01635F7E4F6B01EC01C25FDE4F58E21A
:10299000652E06521D4FF50121915F012F3F59F021
:1029A000811015C0791013C0F801208130E2230F87
:1029B00008F42FEF20839394FFEFEF1AFF0A29E02A
:1029C0009212E9CFCDB7DEB7EEE00C94F93430E0E7
:1029D000F6014081F901EE0FFF1FEC5FFE4F81858C
:1029E000481B550B8881220F331FF901E25FFE4F10
:1029F0009081682F691B770B9B01449FB001459F15
:102A0000700D700D1124229FC001239F900D900D19
:102A10001124860F971F0E946512382F893258F6AD
:102A2000262D231B08F420E0213108F020E1F701D6
:102A30003081320F08F43FEF3083BDCF0E949014F5
:102A40000895E4E1F3E085E0808380914401909172
:102A50004501A091460181839283A3838FE78483FC
:102A60008FEF85830E949014089580E008950F935E
:102A70001F93CF93DF93C82FD62F8A010E9435155D
:102A800099E0C99F900111242C5F3E4FF901ED0F91
:102A9000F11D90819F3F29F0F801E80FF11D90830F
:102AA0008F5FDF91CF911F910F910895E091CA013F
:102AB000F091CB0109950895E091C601F091C7010D
:102AC000099508951F93CF93DF93EC01FC01EC5F10
:102AD000FE4F878968236623B1F00E949512182F54
:102AE0000E94951220E8829FC00111247FE7790F90
:102AF000612F809117030E949B14462F672F282F68
:102B0000CE010E945C15DF91CF911F910895A0E046
:102B1000B0E0EDE8F5E10C94E434EC01FC01EC5F8D
:102B2000FE4F87896823662349F1D09016030091F0
:102B3000170310911503E12EF12C0E949512482FD6
:102B4000C7018C549F4F68E671E00E9477348E195C
:102B50009F0997FD03969595879595958795437061
:102B6000612F489F600D11247D2D802F0E949B14A2
:102B7000462F672F282FCE010E945C15CDB7DEB7F8
:102B8000E7E00C940035E091C801F091C901099586
:102B90000895A8E0B0E0EFECF5E10C94DD34FC0121
:102BA00080901703C82CD12C8601000F111F0C0D2B
:102BB0001D1D1695079516950795602E8FEF90E0D1
:102BC000B6010E947734962E8281882371F040E00E
:102BD00060E080E00E94C315EAEDF2E089E0DF01E9
:102BE0001D928A95E9F71092AA028091A9028F5F3F
:102BF0008093A9028AEDE82E82E0F82E712C56010E
:102C0000A01AB10A8091AA02811143C00E945C35CA
:102C100085359540F4F5F7018082AE014F5F5F4F37
:102C2000672D80E00E9437158823C9F0F701808165
:102C3000E981F0E0282F30E06816D0F5201B310B39
:102C4000209FC001219F900D309F900D1124B50150
:102C50000E946334262F482DCF010E945C15739487
:102C6000FFEFEF1AFF0A29E07212CCCF8091A90280
:102C7000891102C01092A9028091AA028F5F8D3142
:102C800008F080E08093AA0280E02896EEE00C94A1
:102C9000F934D7018C91882309F4BFCF881508F047
:102CA000BCCF9091A9029911B8CF81508C93B5CF28
:102CB0002C9DC0012D9D900D3C9D900D1124B801BF
:102CC0000E946334462F20E060E0C6CFA8E0B0E069
:102CD000ECE6F6E10C94E134E82EB62EA42E0E9428
:102CE000BF0D882309F457C0F12CAA2041F0AE0192
:102CF0004F5F5F4F6B2D8E2D0E943715F82E0F2DD5
:102D000010E08091AC02800F912F911D09976CF11A
:102D100088E090E06C01C01AD10AB80163557D4F7C
:102D2000A6018DEA92E00E947935B8016B547D4F7F
:102D3000A60185EB92E00E947935A601440F551F4C
:102D4000B801660F771F6B537D4F85EC92E00E94B0
:102D50007935B80163547D4FA6018DEB92E00E9456
:102D6000793588E08F198093AC021091AC02DE01B6
:102D7000119640E0242F210FF41211C02093AC02D1
:102D8000AA2049F0809114038C7F8C3421F46B2DA0
:102D90008E2D0E949E142896EAE00C94FD345D91DD
:102DA000852F90E030E0B90164557D4FFC01EE0FB6
:102DB000FF1FEC5FFE4F0185FB010183880F991F08
:102DC000FC01E25FFE4F8081FB018187518BF9019D
:102DD000EE0FFF1FE455FD4F128E118E4F5FCACFCD
:102DE00081E008950E94F0160895880F92E0980FF0
:102DF000983008F097E00895A0E0B0E0E2E0F7E155
:102E00000C94DB343C012B01FC0180810E94F516FF
:102E1000C82F192F60911803669580911C0390911B
:102E20001D030E945B12F82ED0E0CE01880F991F7F
:102E30009C012C5F3E4F6901C11748F081E01730BB
:102E400008F080E0CDB7DEB7E0E10C94F734FE0186
:102E5000EC5FFE4F8789F30191818923882379F103
:102E6000F6018185282F2057330B59018285E82FE1
:102E7000E052FF0B4F01AA9C9001AB9C300D300D2E
:102E80001124EE9FC001EF9F900D900D1124820F31
:102E9000931F0E946512082F60911503709116030D
:102EA00080911703EF2C9401A501F20109950E946E
:102EB0009B14462F672F282FCE010E945C15F2E04D
:102EC000CF0ED11C2196B8CF6AE574E10E94FC16A2
:102ED000089565E774E10E94FC1608958F929F9211
:102EE000BF92CF92DF92EF92FF920F931F93CF93F7
:102EF000DF936C014B01FC0180810E94F516C82F05
:102F0000192F60911803669580911C0390911D0301
:102F10000E945B12B82ED0E0CE01880F991F9C0151
:102F20002C5F3E4F7901C11780F081E0173008F027
:102F300080E0DF91CF911F910F91FF90EF90DF9094
:102F4000CF90BF909F908F900895FE01EC5FFE4F51
:102F50008789F601918189238823C1F0F7012285B1
:102F60002052330B41854057550B609115037091EA
:102F70001603809117030B2DF40109950E949B14F1
:102F8000462F672F282FCE010E945C15F2E0EF0E2E
:102F9000F11C2196C8CF6DE174E10E946E1708956F
:102FA0006BE374E10E946E170895A0E0B0E0EBEDD2
:102FB000F7E10C94E3347C016B01FC0180810E94F9
:102FC000F516C82F192F609118036695669521E0B4
:102FD000620F08F46FEF80911C0390911D030E9413
:102FE0005B12082FD0E0C11748F081E0173008F0DD
:102FF00080E0CDB7DEB7E8E00C94FF34FE01EC5F73
:10300000FE4F8789F70191818923882391F0609190
:1030100015037091160380911703202F4C2FF60192
:1030200009950E949B14462F672F282FCE010E94DE
:103030005C152196D8CF69EC72E10E94D5170895EE
:1030400065EF72E10E94D51708956BEB73E10E9462
:10305000D5170895A4E0B0E0E0E3F8E10C94E13482
:103060006C015B01FC0180810E94F5168B83F92EB7
:10307000609118036695669580911C0390911D03DD
:103080000E945B12182F80E4810F0E94AA128058C0
:103090008983812F0E94AA1280588A839B81892F5D
:1030A00090E09C838B839B819F1548F081E0E6E054
:1030B000EF1508F480E02496EAE00C94FD34EB81EF
:1030C000FC81EC5FFE4F8789F6019181892388237B
:1030D000A9F0609115037091160380911703E12EFA
:1030E0000B812A814981F50109950E949B14462F85
:1030F000672F282F8B819C810E945C158B819C817E
:103100000196CFCF63E273E10E942A18089562E529
:1031100073E10E942A18089562E873E10E942A1858
:103120000895A0E0B0E0E7E9F8E10C94E0348C0108
:103130007B01FC0180810E94F516C82FB92E2091D9
:10314000180331E0230F08F42FEF30E040E050E0A7
:103150006FEF7FEF80E090E00E94AD346901D0E036
:10316000A22E9D2C2C2FCB1550F081E0F6E0FB1504
:1031700008F480E0CDB7DEB7EBE00C94FC34FE0140
:10318000EC5FFE4F8789F80191818923882319F12B
:10319000409120034150042E000C550B47FF1DC0E9
:1031A0008A2D992D6091180321E0620F08F46FEFCA
:1031B0000E945B12AC01609115037091160380911F
:1031C0001703F70109950E949B14462F672F282F9C
:1031D000CE010E945C152196C5CFFA01E05EFC4F3E
:1031E000818982130AC0FA01EE0FFF1FE05EFC4FD7
:1031F000818D928D8C159D05A8F241505109CECF3D
:1032000061EE73E10E9491180895A0E0B0E0EBE058
:10321000F9E10C94E3347C01FC0180810E94F516F5
:10322000C82F192F60911503709116038091170311
:103230000E949B14062FD72EC82ED0E0C11748F04D
:1032400081E0173008F080E0CDB7DEB7E8E00C94FD
:10325000FF34FE01EC5FFE4F8789F70191818923DE
:10326000882331F02C2D402F6D2DCE010E945C154E
:103270002196E4CFA0E0B0E0E0E4F9E10C94E03482
:103280007C01FC0180810E94F516C82F192FD09176
:103290001503A0901603B09017036D2F7A2D8B2D78
:1032A0000E949B14062FD72EC82E809118036D2FD5
:1032B000680F7A2D8B2D0E949B14B62EA72E982E68
:1032C000D0E0C11748F081E0173008F080E0CDB7BA
:1032D000DEB7EBE00C94FC34FE01EC5FFE4F978907
:1032E000F70181818923882359F0292D4B2D6A2DDF
:1032F00090FD03C02C2D402F6D2DCE010E945C153A
:103300002196DFCFA0E0B0E0E8E8F9E10C94E334E7
:103310007C01FC0180810E94F516192FD0901603C4
:10332000C09017032091180300E4029F012D11247F
:10333000C82FD0E0C11748F081E0173008F080E0D6
:10334000CDB7DEB7E8E00C94FF34FE01EC5FFE4F32
:103350008789F701918189238823B9F0FE01EE0F57
:10336000FF1FEC5FFE4F828582958F706091150381
:10337000809F600D11247D2D8C2D0E949B14462F63
:10338000672F282FCE010E945C152196D3CFA0E095
:10339000B0E0EDECF9E10C94E2346C01FC018081C9
:1033A0000E94F516F92EE0901603B09017032091B5
:1033B000180300E4029F012D1124C82FD0E010E073
:1033C000CF1550F081E096E09F1508F480E0CDB76E
:1033D000DEB7E9E00C94FE34FE01EC5FFE4F878916
:1033E000F601918189238823E9F0FE01EE0FFF1F8A
:1033F000EC5FFE4F2185209FC001219F900D11247D
:1034000025E0959587952A95E1F760911503680F5A
:103410007E2D8B2D0E949B14462F672F282FCE01C7
:103420000E945C152196CCCFA0E0B0E0EAE1FAE181
:103430000C94E3347C01FC0180810E94F516C82FB6
:10344000192F00911503D0911603D09017036091A6
:10345000180366956695669580911C0390911D03EF
:103460000E945B120E94AA12805887FD8195880FE6
:10347000282F3D2D239F212D1124822F602F7D2F5A
:103480000E949B14062FD72EC82ED0E0C11748F0FB
:1034900081E0173008F080E0CDB7DEB7E8E00C94AB
:1034A000FF34FE01EC5FFE4F8789F701918189238C
:1034B000882331F02C2D402F6D2DCE010E945C15FC
:1034C0002196E4CFCF92DF92FF920F931F93CF9379
:1034D000DF938C01FC0180810E94F516F92EF80122
:1034E000928191112DC06091180320E1620F08F4C0
:1034F0006FEF80911C0390911D030E945B126AE0A4
:1035000070E00E946334892B71F40E949512F7E0F9
:103510008F9F90011124F8016181832F932F990FC0
:10352000990B0E94871581E0F6E0FF1508F480E012
:10353000DF91CF911F910F91FF90DF90CF90089571
:10354000C82FD0E0CF2CD12CCC15DD0564F7F801C5
:103550006181CE010E9487152196F6CFCF92DF922E
:10356000FF920F931F93CF93DF938C01FC01808117
:103570000E94F516F92EF801928191112DC06091EB
:10358000180320E1620F08F46FEF80911C03909103
:103590001D030E945B1265E070E00E946334892B7A
:1035A00071F40E949512F7E08F9F90011124F801A9
:1035B0006181832F932F990F990B0E94621581E0EF
:1035C000F6E0FF1508F480E0DF91CF911F910F9195
:1035D000FF90DF90CF900895C82FD0E0CF2CD12C52
:1035E000CC15DD0564F7F8016181CE010E946215FA
:1035F0002196F6CFA0E0B0E0E0E0FBE10C94E334EC
:103600008C01FC0180810E94F516C82FF92ED09004
:103610001603E0901703D091150360911803669587
:103620006695669580911C0390911D030E945B1224
:103630000E94AA1220E8280F27FD2195220F3CE0C6
:10364000239F212D11246D2F620F7D2D8E2D0E9421
:103650005712E62ED72EC82ED0E0CF1550F081E0BD
:1036600096E09F1508F480E0CDB7DEB7E8E00C9453
:10367000FF34FE01EC5FFE4F8789F80191818923B9
:10368000882331F02C2D4E2D6D2DCE010E945C151E
:103690002196E3CFA0E0B0E0E0E5FBE10C94E1345B
:1036A000EC0188810E94F516B82E092F8A818823A3
:1036B00061F040E060E080E00E94C315EAEDF2E0D6
:1036C00089E0DF011D928A95E9F78881811117C091
:1036D0008091E4029091E5020E94D62C9C0181E049
:1036E0002931310508F480E08093E3022931310566
:1036F00030F00E94AD2C9093E5028093E40284E0C8
:10370000E82E81E0F82E9AEDC92E92E0D92E2AEA11
:10371000A22ED701ED917D01EB1508F43BC0E01717
:1037200008F038C0F0E0EC5FFE4F8789998189236B
:10373000882309F42FC0F6011081612F25E5621B53
:1037400008F460E08A2D861B682F709116033A2DCD
:10375000310F08F43FEF40911703232F220F230F5F
:103760002E5F249F212D1124822F0E949B14462F0F
:10377000672F282FF7013197808190E00E945C1518
:103780008091E302882331F021E0121B08F410E05D
:10379000D6011C93BFEFCB1ADB0AEDE0EE16E1E099
:1037A000FE0609F0B6CF81E0073008F080E0CDB723
:1037B000DEB7EAE00C94FD34CF93C82F80912A0144
:1037C0008C1325C020911403237030E040912B010D
:1037D00050E081E02417350709F480E08170809380
:1037E00029018091190390912801981739F080934D
:1037F000280140E060E080E00E94C315C63108F077
:1038000099C0EC2FF0E0E55FF94C0C94CC3481E0EA
:10381000E5CF80912901882309F495C040E060E05C
:1038200080E00E94C315809127018F5F809327015C
:1038300082E08093260180912901882309F488C0C1
:10384000CF91089587E291E00E9405199091270198
:103850009F5F909327018111F3CF82E0809326012F
:10386000809129018111ECCFCC23E8CF87E291E050
:103870000E943A19EBCF87E291E00E948219E6CFCD
:1038800087E291E00E94C719E1CF87E291E00E94B0
:10389000141ADCCF87E291E00E941B18D7CF87E291
:1038A00091E00E942018D2CF87E291E00E94CB17CE
:1038B000CDCF87E291E00E94D017C8CF87E291E098
:1038C0000E946417C3CF87E291E00E946917BECFC0
:1038D00087E291E00E948218B9CF87E291E00E94CE
:1038E0008718B4CF87E291E00E948C18AFCF87E2AF
:1038F00091E00E94621AAACF87E291E00E94AE1A7C
:10390000A5CF87E291E00E94FA1AA0CF87E291E06A
:103910000E9425189BCF87E291E00E944A1B96CF18
:1039200087E291E00E94C91591CF87E291E00E9461
:1039300000198CCF809127018F5F8093270182E04F
:10394000809326017DCF809127018F5F809327018F
:1039500083E0F6CF81E008950E94AA1C0895FC013F
:10396000808181500E94F516692F0E94AC1C089539
:103970004F925F926F927F928F929F92AF92BF927F
:10398000CF92DF92EF92FF92CF93DF9300D000D0DF
:10399000CDB7DEB78091D5029091D602A091D70223
:1039A000B091D80289839A83AB83BC83BC01CD01DB
:1039B0000E94E52C6B017C010E94B92C6093D5021A
:1039C0007093D6028093D7029093D802A091AC0254
:1039D000ECEAF2E02A2F30E088248A94982CA12C7B
:1039E000B12C8C189D08AE08BF08A3132FC02093DC
:1039F000AC022091D90221113CC020911403A22FC6
:103A0000A370A983AA2319F02695269529832091CE
:103A10002601223009F455C070F5211141C01092E1
:103A2000270160931C0370931D0380931E039093E2
:103A30001F0389E2ECEAF2E0A0E2B3E001900D920C
:103A40008A95E1F781E08093260117C0418D528D60
:103A50002A01612C712C84149504A604B70420F467
:103A600021503F5F3296C1CF4C0D5D1D528F418F6B
:103A7000F8CF1982CCCF233081F10F900F900F90A7
:103A80000F90DF91CF91FF90EF90DF90CF90BF909C
:103A9000AF909F908F907F906F905F904F90089520
:103AA00089810E94DC1BB981BB2339F380912601F7
:103AB000823011F40E94F21687E291E00E94AF1C5E
:103AC000DCCF398130932A01809114038370809375
:103AD0002B010E94561583E0B6CF8091AB02811175
:103AE0000E94901480911C0390911D03A0911E03CD
:103AF000B0911F03BC01CD010E94E52C69837A833C
:103B00008B839C83603171058105910508F4B5CFE5
:103B100010922601B2CFE091C401F091C501099540
:103B20001092200340E150E06FEF70E089E393E0F2
:103B30000E9482351092AC0240E150E06FEF70E0DD
:103B400085EC92E00E9482350E94B80C811104C07D
:103B50000E945B0D0E94211581E08093AB0248E03A
:103B600050E068E170E084E193E00E9489351092B2
:103B7000AB0280911403843010F40E942115089543
:103B8000CF93C82F882391F08091D90281110EC064
:103B90000E94DC1B10922A01809114038370809391
:103BA0002B010E94561583E080932601C093D90211
:103BB000CF910895E4E1F3E0908121E09227908392
:103BC000109226010E94E813089580E00E94DA1DF9
:103BD000089581E00E94DA1D089580911403837096
:103BE000811102C010922601809114038C7F8160A4
:103BF00080931403089580911403837081111092AF
:103C00002601809114038C7F809314030895809182
:103C1000140383700895982F862F20911403237026
:103C2000222389F0992381F0963180F49F73990FB4
:103C3000990F209114032370922B909314031092E8
:103C400026010E94E813089591E0F1CF95E1EFCFAE
:103C500060E00E940B1E089561E00E940B1E089513
:103C600080911403869586950895682F809114039A
:103C7000869586958F5F863108F081E00E940B1E45
:103C8000089581E00E94351E0895682F90911403D5
:103C9000969596958FEF890F913009F485E10E94F2
:103CA0000B1E089581E00E94451E0895982F822FD3
:103CB000209114032370222359F0909315036093ED
:103CC00016034C3408F04BE4409317030E94E813AA
:103CD000089520E00E94561E0895809115030895CE
:103CE000809116030895809117030895282FE4E129
:103CF000F3E09181892F90E04381628108960E94D0
:103D0000561E089581E00E94761E0895282FE4E152
:103D1000F3E08181438162818850990B0E94561E95
:103D2000089581E00E94861E0895282FE4E1F3E0C3
:103D3000628130E1630F08F46FEF8181438190E08D
:103D40000E94561E089581E00E94951E0895282F16
:103D5000E4E1F3E0628130E1631B08F460E081811B
:103D6000438190E00E94561E089581E00E94A71EA4
:103D70000895282FE4E1F3E0438130E1430F08F494
:103D80004FEF8181628190E00E94561E089581E08C
:103D90000E94B91E0895282FE4E1F3E0438130E149
:103DA000431B08F440E08181628190E00E94561E2E
:103DB000089581E00E94CB1E08958093180380E04F
:103DC0000E94E8130895809118030895E4E1F3E058
:103DD000248130E1230F08F42FEF24830E94E8139D
:103DE000089581E00E94E61E0895E4E1F3E0248155
:103DF00030E1231B08F420E024830E94E813089597
:103E000081E00E94F51E08951092E6020895CF9376
:103E1000DF93DC01FC01EE0FFF1FEF01CA0FDB1F78
:103E2000C75BDC4F8981861306C08881841303C079
:103E30008A81821751F081E08093E602EA0FFB1F2E
:103E4000E75BFC4F618340832283DF91CF9108952C
:103E5000FF920F931F93CF93DF93182F062FF42E0B
:103E6000C0E0D0E02F2D402F612FCE010E94071F10
:103E70002196C730D105B1F7CDB7DEB7E5E00C9498
:103E800002358091E602882341F067E070E089E422
:103E900093E00E948D201092E6020895FA01882393
:103EA00011F009950895FB01FCCF1F93CF93DF9389
:103EB000EC01FB01158111114FC00E94880B827229
:103EC000FE01E052F847E531F10508F045C0EF5D2D
:103ED000F94C0C94CC340E94E91D812FDF91CF91D5
:103EE0001F91089542E55EE161E47EE10E944E1F6C
:103EF000F4CF41E45EE162E57EE1F8CF41E95EE1C5
:103F000062E87EE1F3CF42E85EE161E97EE1EECF77
:103F100045EB5EE163EA7EE1E9CF43EA5EE165EB12
:103F20007EE1E4CF49ED5EE167EC7EE1DFCF47EC77
:103F30005EE169ED7EE1DACF40E05FE161EF7EE1D5
:103F4000D5CF41EF5EE160E07FE1D0CF81E00E941C
:103F50002C1EC3CF85E0FBCF11E0BFCF8FE891E0EF
:103F60000197F1F700C00000089581E08093E80216
:103F700023982B9A22982A9A0E94AE1F2091E80239
:103F80004AEE52E0FA018E2F841B821708F0089542
:103F900093B183B182FB882780F9880F93FB99271F
:103FA00090F9892B8193EFCFA8E1B0E0EAEDFFE132
:103FB0000C94DC3410E000E084E0A82EB12C9DEFDE
:103FC000992E22E0822E772473943CEF632E43E0F7
:103FD000542E8091E802181728F0802F6896EFE0A1
:103FE0000C94F834E12EF12C93B183B182FB882735
:103FF00080F9880F93FB992790F9892BD701A65157
:10400000BD4FEC919E2F9370981709F484C0EE0F6A
:10401000EE0FE82BEC93EF70F0E0E453FE4FC70196
:1040200087519D4F6C018081F6019081890F8083BB
:1040300020E084308CF1F701E951FD4F80818F5FE2
:1040400080831D876E860E94AD2CBC018F87988B64
:10405000598A7A8A4D855E8583E091E00E94D80373
:104060008FE39CE90197F1F700C000001B8B6C8A7D
:104070000E94AD2CBC018D8B9E8B5F8A188E4B8964
:104080005C8983E090E00E94D803EFE3FCE931977C
:10409000F1F700C0000021E0F60180818D3F8CF532
:1040A000F701E951FD4F80818150808319839A8205
:1040B0000E94AD2CBC018B839C838D827E824981C2
:1040C0005A8182E091E00E94D8038FE39CE9019736
:1040D000F1F700C000001F8398860E94AD2CBC0140
:1040E00089879A878B861C864F81588582E090E06D
:1040F0000E94D803EFE3FCE93197F1F700C000001C
:1041000021E0F6018081082E000C990BB5010E9478
:1041100077348083022B1F5F5CCF9C01AB01869AB2
:1041200061B36F7B71B37064EFB7F894CA01880F05
:10413000991F840F951F820F931F8217930741F4D5
:10414000EFBF8FE594E00197F1F700C000000895FC
:10415000D9014D919D0158E071BB000000C047FF9F
:1041600061BB440F000000C000C000C061BB00C0C4
:104170005A9591F7E2CF84E008950F931F93CF9360
:10418000DF93843008F561111FC04930E8F4C42F73
:10419000D0E0CC0FDD1F22E1829FC00DD11D112484
:1041A000CE0189960E949935082F10E0102F002724
:1041B000CE018A960E9499359801282BC901DF917A
:1041C000CF911F910F91089580E090E0F8CF1F9359
:1041D000CF93DF93962F122F632F8430B0F4911179
:1041E00014C0493090F4C42FD0E0CC0FDD1F92E111
:1041F000899FC00DD11D1124CE0189960E94B7352B
:10420000612FCE018A960E94B735DF91CF911F9121
:1042100008950F931F93CF93DF93843048F5611176
:1042200027C024E0829F800111240F581F4FC8012E
:104230004423A1F00E949935C82FD0E0DC2FCC2771
:1042400081E090E0800F911F0E9499359E01282BFC
:10425000C901DF91CF911F910F91089502960E949D
:104260009935C82FD0E0DC2FCC2783E090E0EACF4F
:1042700080E090E0EECF1F93CF93DF93962F122F25
:10428000632F8430A0F4911112C094E0899FE00163
:104290001124CF58DF4FCE01442369F00E94B73577
:1042A00081E090E0612F8C0F9D1F0E94B735DF9158
:1042B000CF911F91089502960E94B73583E090E058
:1042C000F1CFCF93DF93C0E0D0E04D2F60E08C2F93
:1042D0000E9468029C014D2F60E08C2F0E94E72015
:1042E000DF5FD93091F741E060E08C2F0E947F02C0
:1042F0009C0141E060E08C2F0E943B2140E060E0A7
:104300008C2F0E947F029C0140E060E08C2F0E9475
:104310003B21CF5FC430C1F6DF91CF910895EF927A
:10432000FF920F931F93CF93DF938C01EA017A01E1
:10433000E60EF71ECE15DF0529F4CDB7DEB7E6E0B1
:104340000C94013580E00834110520F4C8018996E9
:104350000E94993589930F5F1F4FECCFEF92FF9228
:104360000F931F93CF93DF938C01EA017A01E60E3E
:10437000F71ECE15DF0529F4CDB7DEB7E6E00C94C5
:1043800001350834110528F46881C80189960E9416
:10439000B73521960F5F1F4FECCF843038F4611191
:1043A00005C0493018F40E94BD20089580E090E0D7
:1043B0000895843028F4611103C00E9409210895F2
:1043C00080E090E0089580E108958FE793E00895FC
:1043D000EF92FF920F931F93CF93DF938C01EA012B
:1043E0007A01E60EF71ECE15DF0529F4CDB7DEB74C
:1043F000E6E00C9401350F3783E0180748F4C80154
:104400008F579F4F0E94993589930F5F1F4FEBCFB6
:1044100080E0FACFEF92FF920F931F93CF93DF9339
:104420008C01EA017A01E60EF71ECE15DF0529F4AC
:10443000CDB7DEB7E6E00C9401350F3783E01807FF
:1044400030F46881C8018F579F4F0E94B73521967D
:104450000F5F1F4FEACFCF93DF93C1E8D0E060E05A
:10446000CE010E94B7352196C11584E0D807B9F76F
:10447000DF91CF910895A8E0B0E0E1E4F2E20C947E
:10448000E334F82E2FE0281708F46FC08FEF93E085
:104490000E949935811169C001E810E0F11038C01F
:1044A0001A821982FE01339686E0DF011D928A95F9
:1044B000E9F76801BFEFCB1ADB0AC8010E94993502
:1044C00089831A82882309F450C08130D1F478019D
:1044D00022E0E20EF11CC6010E9499358A838823EE
:1044E00009F443C09FEF980F9330F8F4680183E01C
:1044F000C80ED11CC7010E9499358B838823A9F16E
:104500001C826AE0CE0101960E94BC268601D1CFB2
:10451000011584E0180749F1C8010E9499350F5F21
:104520001F4F8111F5CFFA94B9CF8430B9F402E06E
:1045300010E0C701AFEFEA1AFA0A0E949935E1E0EC
:10454000F0E0EC0FFD1FE00FF11F8083882369F07E
:104550008C3731F4FE01E00FF11F12826701D1CFD9
:104560000F5F1F4F0730110521F72896E8E00C94E4
:10457000FF34CF93DF93EB0186319C4719F50E94FE
:10458000880B9D819923A1F08A7A91E0811101C065
:1045900090E09093EB02882349F085E30E949C2BE6
:1045A0000E94420C80E0DF91CF91089589E2F6CF1E
:1045B0008091EB02882321F085E30E94B32BF0CF9A
:1045C00089E2FBCF81E0EFCFCF93DF93EC01FB01DA
:1045D0008581882309F4D2C09E01305723323105EA
:1045E00008F0B2C00E94CE0C90930F0380930E038C
:1045F000FE01E150F047E232F10520F4EA5CF94CAB
:104600000C94CC3480910E03816080930E0393C090
:1046100080910F03886080930F038DC080910E03FB
:104620008260F3CF80910E038460EFCF80910E0300
:104630008860EBCF80910F038160EDCF80910F03F5
:104640008260E9CF80910E038061DFCF80910E03FD
:104650008062DBCF80910E038064D7CF0E94170762
:1046600080910E038068D1CF80910E038C60CDCFF6
:1046700080910F038360CFCF80910E038E7FC5CFD3
:1046800080910F03877FC7CF80910E038D7FBDCFB1
:1046900080910E038B7FB9CF80910E03877FB5CFBA
:1046A00080910F038E7FB7CF80910F038D7FB3CFA3
:1046B00080910E038F7EA9CF80910E038F7DA5CFB1
:1046C00080910E038F7BA1CF0E94170780910E036C
:1046D0008F779BCF80910E03837F97CF80910F03BD
:1046E0008C7F99CF80910E0382FB992790F921E06E
:1046F000922790FB82F990FB83F987CF80910F037B
:10470000982F909591708E7F892B90FB81F983CFA4
:1047100090910E03892F8F7B96FF806476CF0E9445
:10472000170790910E03892F97FB87F980586DCF5B
:1047300081E00E945E0D80910E0390910F030E9414
:10474000D30C0E94170780E0DF91CF91089580E09D
:10475000F0CF90910E03892F8F7E94FF806155CF0B
:1047600090910E03892F8E7F90FF81604ECF9091A4
:104770000F03892F877F93FF88604DCF81E0E4CFBF
:10478000282F35EB2303C001112497FF04C0805864
:104790009109892F089580589F4FFBCF8091F20295
:1047A00080FF0DC06091330170E0660F771F6038A5
:1047B0007105C0F561157105B9F1862F089581FF66
:1047C00007C06091330184E0689FB0011124EFCFEE
:1047D00082FF04C06091330188E0F6CF8091F1023E
:1047E0008823E9F0909132016091330170E08917DC
:1047F00030F093E0660F771F9A95E1F7D8CF869F48
:104800009001879F300D112483E0220F331F8A957A
:10481000E1F7692F70E0C9010E947734C8CF68E0E2
:1048200070E0CBCF8FE7089581E008958091F20288
:1048300080FF0CC060912F0170E0759567957595AC
:1048400067956115710561F1862F089581FF06C096
:1048500060912F0170E075956795F3CF60912F01FE
:1048600070E082FD15C02091F0022223B1F09091FA
:104870002E0160912F0170E0291750F4269FA001AE
:10488000279F500D1124692F70E0CA010E947734D0
:1048900060387105B0F28FE7089561E070E0D4CF21
:1048A00081E008959091F5022091F602922B2091DB
:1048B000F802922B2091F702922B992331F098E085
:1048C0009093F10291E09093F0028D3C31F40E94BC
:1048D000CE2381958093F6020895E2E3E80FE2315A
:1048E000B0F5F0E0E85AF94C0C94CC340E94CE2399
:1048F000F1CF0E94CE2381958093F50208950E9406
:10490000CE23FACF0E9416248093F70208950E94C6
:1049100016248195F9CF0E94162481958093F80280
:1049200008950E941624FACF815D990B21E030E0B2
:1049300001C0220F8A95EAF78091F402822B8093BE
:10494000F40208958091F20281608093F20208954A
:104950008091F2028260F9CF8091F2028460F5CFFB
:104960004091F5028D3C59F48091F60287FF0DC00D
:104970001092F602442359F41092F10208C08E3CC2
:1049800081F48091F60218169CF3442381F0809103
:10499000F7029091F802892B811159C01092F00210
:1049A00008958F3C41F447FFF0CF1092F5028091BB
:1049B000F6028823E0CF803D19F41416B4F3E5CF56
:1049C0009091F702893D29F41916FCF61092F7022E
:1049D000DCCF8A3D19F497FFD8CFF8CF9091F80239
:1049E0008B3D29F497FFD1CF1092F802CECF8C3DAA
:1049F00019F41916CCF3C9CF9FE2980F983090F4B0
:104A0000815D990B21E030E0B90102C0660F771F8C
:104A10008A95E2F7CB0180959091F40289238093E7
:104A2000F402B3CF8D3D31F48091F2028E7F8093FA
:104A3000F202ABCF8E3D21F48091F2028D7FF7CF51
:104A40008F3D09F0A2CF8091F2028B7FF0CF0895C5
:104A50000E94AD2C2091F5023091F602232B2223E7
:104A600021F08093EE029093EF022091F7023091B3
:104A7000F802232B222321F08093EC029093ED0285
:104A800083EF92E00E94922A089586E0E3EFF2E03D
:104A9000DF011D928A95E9F71092F1021092F0025F
:104AA0001092F2020895FC01828181110DC0838170
:104AB00081110AC08481811107C081E09581911123
:104AC00001C080E08170089581E0FCCFA6E0B0E0F5
:104AD000ECE6F5E20C94E63486E0E3EFF2E09E01CA
:104AE0002F5F3F4FD90101900D928A95E1F7109207
:104AF000F5021092F6021092F7021092F8028B81E2
:104B00009C81892B8901882391F08091EE029091FC
:104B1000EF020E94D62C9C018091F1028823C9F1FA
:104B20004091340150E04217530708F43FC08D8193
:104B30009E81892B882399F08091EC029091ED025F
:104B40000E94D62C9C018091F002882309F467C052
:104B50004091300150E04217530708F46EC0B8018D
:104B600083EF92E00E94E42B811105C083EF92E075
:104B70000E94532581110E94282586E0F801A3EFA9
:104B8000B2E001900D928A95E1F72696E5E00C944B
:104B90000235409135019AE0499FA0011124421746
:104BA000530728F68F5F8093F10202C08F3FD1F741
:104BB000FB80FF2059F00E94CE2391E01F140CF0DF
:104BC0009FEF899F802D11248093F502FC80FF20A8
:104BD00059F00E94CE2391E01F140CF09FEF899FA3
:104BE000802D11248093F6028091F502882309F428
:104BF0009ECFF090F602FF2009F499CF0E94C023C7
:104C0000811101C081E08093F5028F2D0E94C023A5
:104C1000882319F08093F6028ACF81E0FBCF409180
:104C200031019AE0499FA00111244217530708F06F
:104C300096CF8F5F8093F00202C08F3FD1F7FD8047
:104C4000FF2059F00E94162491E01F140CF09FEFF2
:104C5000899F802D11248093F702FE80FF2059F058
:104C60000E94162491E01F140CF09FEF899F802D65
:104C700011248093F8028091F702882309F46FCF02
:104C8000F090F802FF2009F46ACF0E94C02381113E
:104C900001C081E08093F7028F2D0E94C0238823FA
:104CA00019F08093F8025BCF81E0FBCFFF920F9366
:104CB0001F93CF93DF93E82FF0E0EC5FFD4FF4906C
:104CC000282F26952695269530E0F901EC55FD4FC5
:104CD00094918770F901EC56FD4F049110E0082E75
:104CE00002C0159507950A94E2F701701127F901A2
:104CF000EC57FD4FC491D0E0082E02C0D595C79562
:104D00000A94E2F7C170DD27E92FF0E002C0F595C3
:104D1000E7958A95E2F7E0FD10C001151105C1F491
:104D20008F2D0E94AE04CD2B19F08CE20E94AE04B0
:104D3000CDB7DEB7E5E00C94023581EE0E941B048E
:104D40000115110579F48F2D0E94AE0481EE07C084
:104D500086EE0E941B048F2D0E94AE0486EE0E94F8
:104D60006304E1CF86EE0E941B048F2D0E94AE04E7
:104D700086EE0E946304EACFEF92FF921F93CF93D7
:104D8000DF93EC01162F8881882309F456C0813007
:104D900009F050C089818130A1F47E0122E0E20E49
:104DA000F11C8A810E94AE04E7012196812F88239D
:104DB00051F3EFE9FFE03197F1F700C000008150B7
:104DC000F6CF823041F47E0182E0E80EF11C8A8148
:104DD0000E941B04E9CF833041F47E01E2E0EE0E35
:104DE000F11C8A810E946304DFCF843011F0219688
:104DF000DCCF2A81229680E090E06AE0AE014F5F2E
:104E00005F4F2053330B2A30310548F0019768F289
:104E1000EFE9FFE03197F1F700C00000F7CF689F9E
:104E2000F001699FF00D1124C9018E0F9F1F298188
:104E3000EA01E4CF0E945626B8CFDF91CF911F91AF
:104E4000FF90EF9008950F931F93CF93DF93C42F9C
:104E5000D22FFC0185818823C9F04093FB020E9478
:104E6000AD2C9093FA028093F90280E28C0F883087
:104E700040F4C77081E001C0880FCA95EAF70E942C
:104E8000B704DF91CF911F910F9108951091FB020C
:104E900014133CC08091F9029091FA020E94D62C22
:104EA000883C910598F5C0E2CD0F1D1741F180E2D5
:104EB000810F883040F4177081E001C0880F1A9587
:104EC000EAF70E94BE04C83020F0802F0E94AE0492
:104ED000D8CF91E08D2F877001C0990F8A95EAF79E
:104EE000892F0E94B704802F0E94AE04D77081E002
:104EF00001C0880FDA95EAF70E94BE04C2CF802F66
:104F00000E94AE04C83008F0BCCFF0CF80E28C0F16
:104F1000883008F0B6CFC77081E001C0880FCA950D
:104F2000EAF7EACF0F93FC01CB01E851FC47E730E9
:104F3000F10590F5E659F94C0C94CC3406E221EEDB
:104F400041EE6AE17CE70E94232780E00F910895FB
:104F500007E225EE45EE6BE17CE7F5CF06E221EEB8
:104F600040EE68E17CE7EFCF07E225EE44EE69E131
:104F70007CE7E9CF06E221EE42EE6CE17CE7E3CF8D
:104F800007E225EE46EE6DE17CE7DDCF08E221E0A9
:104F900045EE6EE17CE7D7CFFB0185818111109250
:104FA000FB0281E0D3CFCF93DF939C01FB01273736
:104FB0008CE7380739F028373C47F1F081E0DF9182
:104FC000CF9108958581882391F00E9405280E9441
:104FD00091070E940B28D82F0E940828C82F0E94F2
:104FE00005284D2F6C2F0E94C90880E0E8CF0E9451
:104FF00005280E949D07EDCF8581882319F00E9426
:105000000828E5CF0E940828F4CF80913801089540
:1050100080913701089580913601089585E290E0EE
:105020000E949935843289F486E290E00E94993595
:10503000803159F487E290E00E94993591E0813007
:1050400009F090E0892F8170089580E0FCCF8823DB
:1050500081F064E285E290E00E94B73560E186E28B
:1050600090E00E94B73561E087E290E00E94B7359A
:1050700008956FEF85E290E00E94B7356FEF86E20A
:1050800090E00E94B7356FEFEFCF0895A4E0B0E055
:10509000ECE4F8E20C94E93488E290E00E9499355F
:1050A000282F30E040E050E0CA01B9012496E2E048
:1050B0000C9405350895CF93C62F0E945A286C2F63
:1050C00088E290E00E94B735CF91089580E00E9479
:1050D000272860E070E0CB010E945B280E946121DC
:1050E0000E942B2281E00E94272808950E944528D3
:1050F0000E9446280E945A280E940E28811102C050
:105100000E94662808950E94E51D08959C01FB01F8
:105110008581882351F0A90157574038510530F453
:10512000822F0E943B2280E0089581E008952FEFB6
:10513000FC012083089580E00895CF93DF93EC0174
:105140008881833021F138F4813071F08230C1F0F0
:10515000DF91CF9108958430D9F70E946D1E898325
:105160000E94701E8A83F4CF0E94731E2FEF829FCD
:10517000C00111246BE470E00E9463346983E8CFBE
:105180000E94071E81110E94301E8983E1CF0E9478
:10519000E31EFBCF1F93CF93DF93EC018881833015
:1051A00069F140F4813071F08230E1F0DF91CF910C
:1051B0001F9108958430D1F70E94731E482F898172
:1051C0006A810CC019812BE4129F112D11240E94B9
:1051D000701EC82F0E946D1E412F6C2F90E00E9400
:1051E000691EE4CF8981811103C00E94FB1DDECFBF
:1051F0000E94ED1D89810E94281ED8CF89810E94BE
:10520000DD1ED4CFFC019C012E5F3F4F9081983072
:1052100041F0993051F0973059F4C9010E94CA28E1
:105220000895C9010E949D2808950E941E150895A1
:105230008FEF80830895FC012181233019F40E94AF
:10524000022908950E9497280895AEE0B0E0EBE2AD
:10525000F9E20C94E8348D839E83162F8D819E8114
:105260000E949B28811115C0AD81BE81EC91E15057
:10527000E531F0F4F0E0EF58F94C0C94CC34ED81CA
:10528000FE8111828CE08283612F8D819E810E943C
:10529000982D2E96E3E00C940435AD81BE811196D5
:1052A0008C91833059F148F4813081F08230C9F01B
:1052B0008FEFAD81BE818C93E7CF8430C9F7ED814C
:1052C000FE811282138214821582DECF0E94B92CD5
:1052D0000E94D234ED81FE8162837383848395833F
:1052E000D3CF0E9446280E94D234AD81BE8112964F
:1052F0006D937D938D939C931597C6CFED81FE8121
:1053000082818111C1CF0E94B410982789279827E4
:10531000AD81BE8114969C938E931397B5CFED818A
:10532000FE818181823041F0853011F6ED81FE8170
:1053300082810E948328A8CFAD81BE8112968D9173
:105340009D910D90BC91A02DBC01CD010E94D23445
:105350000E945B2899CFAD81BE8113964C91139723
:1053600012966C91129711968C910E94BD209827ED
:1053700089279827ED81FE819583848385CFAD8130
:10538000BE8114962D913C91159732272327322701
:1053900013964C91139712966C91129711968C91CB
:1053A0000E94E72071CF0E9461216ECF612F8D8115
:1053B0009E810E941B2968CF0E94E321ED81FE811E
:1053C000818362CF0E94E521982789279827AD81A4
:1053D000BE8112969C938E93119756CFED81FE81DC
:1053E000638170E081819281AF014C5F5F4F9827AC
:1053F000892798270E94E82147CFAD81BE81139667
:105400006C91139770E011968D919C911297AD015C
:105410004C5F5F4F9827892798270E940A2234CF34
:105420000E942B2231CF0E94BB20C8CFAD81BE810C
:1054300013966C91139770E011968D919C91129731
:10544000AD014C5F5F4F9827892798270E948F21D5
:105450001BCFED81FE81638170E081819281AF017C
:105460004C5F5F4F9827892798270E94AE210CCF69
:1054700041E0AD81BE8113968C91811101C040E065
:10548000ED81FE81628181810E940921982789270F
:105490009827AD81BE8115969C938E931497F4CE78
:1054A000ED81FE812481358132272327322741E097
:1054B0008381811101C040E0AD81BE8112966C9163
:1054C000129711968C910E943B21DECE909301039E
:1054D000809300030895E0910003F0910103309759
:1054E00029F00190F081E02D0995089580E008955C
:1054F000E0910003F0910103309721F00280F381E5
:10550000E02D09950895DC01E0910003F09101037D
:10551000309739F086E08C930480F581E02DCD0141
:1055200009950895DC01E0910003F09101033097A3
:1055300039F082E08C930680F781E02DCD0109954A
:105540000895A3E0B0E0E7EAFAE20C94E9349C01A4
:105550008091FE029091FF0282179307A1F0309391
:10556000FF022093FE02E0910003F09101033097C7
:1055700051F083E089833B832A830084F185E02D09
:10558000CE01019609952396E2E00C940535A3E03F
:10559000B0E0EDECFAE20C94E9349C018091FC025D
:1055A0009091FD0282179307A1F03093FD022093A2
:1055B000FC02E0910003F0910103309751F084E088
:1055C00089833B832A830084F185E02DCE010196F7
:1055D00009952396E2E00C94053520912401309141
:1055E00025012E5F3F4F809143018823A9F08091D0
:1055F0000E0387FF11C020912201309123012E5FFD
:105600003F4F9DE180E0F90140812F5F3F4F411105
:105610008F5F9150C0F7089595E0F4CF882321F172
:1056200090914301992311F190910E0397FF1EC0B1
:10563000982F969596959695803FB0F4E09122012B
:10564000F0912301E90FF11D228130E0877041E0E4
:1056500050E0BA0102C0660F771F8A95E2F7262351
:10566000372381E0232B91F480E0089520912401D9
:1056700030912501F9013296285F3F4F919198179B
:1056800021F0E217F307D1F7EFCF81E008959C01F5
:10569000FC0132968FEF90E04191461751F08F3F19
:1056A00019F4411101C0892F9F5F9630A9F78F3FF0
:1056B00009F40895280F311D87FD3A95F901628399
:1056C00008959C01FC013296285F3F4F819186131B
:1056D00003C0DF0111971C92E217F307B9F7089591
:1056E000FC01862F869586958695603F60F4E80FCD
:1056F000F11D677021E030E001C0220F6A95EAF7E2
:105700008281822B82830895FC01862F869586955F
:105710008695603F80F4E80FF11D677081E090E0AE
:105720009C0102C0220F331F6A95E2F7B901609510
:105730008281682362830895682F809143018823C2
:1057400059F080910E0387FF07C08091220190914C
:1057500023010E94702B08958091240190912501CE
:105760000E94472B0895682F80914301882359F0A8
:1057700080910E0387FF07C0809122019091230141
:105780000E94842B089580912401909125010E940C
:10579000612B089580914301882379F080910E0355
:1057A00087FF0BC0E0912201F091230132968EE138
:1057B000DF011D928A95E9F70895E0912401F091A7
:1057C0002501329686E0F4CFDC01FB0111969C9115
:1057D00011978181981322C012968C911297882379
:1057E00019F0928189131AC013968C91139788230C
:1057F00019F09381891312C015968C9115978823FF
:1058000019F0958189130AC014969C91992321F06F
:1058100081E02481291303C080E001C081E0817010
:10582000089508950E94112C08958F5F80930203BC
:105830000E94122C089583E0809302030E94122C90
:1058400008950E94152C089581E0809302030E9420
:10585000122C08950E94242C0895089508950E9402
:105860002E2C0895089508950E942D2C08950E94CD
:10587000322C0E9430110E94332C80E00E94B41020
:105880009C0181E0232B09F480E0089585B78068AE
:1058900085BF85B7806885BF08951F921FB61F9288
:1058A00011248F939F93AF93BF9380910303811132
:1058B00013C080915E0390915F03A0916003B0914B
:1058C00061034196A11DB11D80935E0390935F0318
:1058D000A0936003B0936103BF91AF919F918F91AB
:1058E0001F901FBE1F90189580916603843031F180
:1058F0000E9487031092030388E190E020E40FB632
:10590000F894A895809360000FBE2093600083B741
:10591000817F846083BF83B7816083BF78948895DB
:1059200083B78E7F83BF0FB6F894A89580916000EF
:10593000886180936000109260000FBE08950E94FD
:1059400017070E949103089582E084BD93E095BDFE
:105950009AEF97BD80936E0008952FB7F8948091C9
:105960005E0390915F03A0916003B09161032FBF2C
:105970000895A4E0B0E0EFEBFCE20C94E9348FB7BB
:10598000F89420915E0330915F0340916003509141
:10599000610329833A834B835C838FBF69817A815A
:1059A0008B819C812496E2E00C9405359C014FB7D5
:1059B000F89480915E0390915F03A0916003B09191
:1059C00061034FBF821B930B0895A4E0B0E0EBEEA0
:1059D000FCE20C94E734462F572FBC012FB7F89404
:1059E00080915E0390915F03A0916003B091610389
:1059F0002FBF8C019D01041B150B260B370BC90112
:105A0000B8012496E4E00C94033578941F921FB6F5
:105A10001F9211248F939F93AF93BF9380915E0346
:105A200090915F03A0916003B09161030196A11D65
:105A3000B11D80935E0390935F03A0936003B093C6
:105A40006103BF91AF919F918F911F901FBE1F90D7
:105A5000189587E797E7909301088093000888E1FD
:105A60009AE00FB6F894A895809360000FBE9093CB
:105A70006000FFCF88E19AE00FB6F894A895809374
:105A800060000FBE90936000FFCF80910C030895DB
:105A9000282FCB01BA01309166033430E1F42F7026
:105AA0002093E9002FEF3091E80035FD07C035ED78
:105AB0003A95F1F7000021502111F5CF2091E8002F
:105AC00025FF09C040E050E00E94922F8091E8003D
:105AD0008E778093E8000895BC0143E050E084E0B5
